{
  "_format": "hh-sol-artifact-1",
  "contractName": "OracleReader",
  "sourceName": "contracts/OracleIntegration.sol",
  "abi": [
    {
      "inputs": [
        {
          "internalType": "address",
          "name": "_oracleAddress",
          "type": "address"
        }
      ],
      "stateMutability": "nonpayable",
      "type": "constructor"
    },
    {
      "inputs": [],
      "name": "getLatestPrice",
      "outputs": [
        {
          "internalType": "int256",
          "name": "price",
          "type": "int256"
        },
        {
          "internalType": "uint8",
          "name": "decimals",
          "type": "uint8"
        },
        {
          "internalType": "uint80",
          "name": "roundId",
          "type": "uint80"
        },
        {
          "internalType": "uint256",
          "name": "updatedAt",
          "type": "uint256"
        }
      ],
      "stateMutability": "view",
      "type": "function"
    },
    {
      "inputs": [],
      "name": "getLatestPriceUSD",
      "outputs": [
        {
          "internalType": "uint256",
          "name": "",
          "type": "uint256"
        }
      ],
      "stateMutability": "view",
      "type": "function"
    },
    {
      "inputs": [],
      "name": "getPriceFeedInfo",
      "outputs": [
        {
          "internalType": "string",
          "name": "description",
          "type": "string"
        },
        {
          "internalType": "uint256",
          "name": "version",
          "type": "uint256"
        }
      ],
      "stateMutability": "view",
      "type": "function"
    },
    {
      "inputs": [],
      "name": "priceFeed",
      "outputs": [
        {
          "internalType": "contract AggregatorV3Interface",
          "name": "",
          "type": "address"
        }
      ],
      "stateMutability": "view",
      "type": "function"
    }
  ],
  "bytecode": "0x60a060405234801561001057600080fd5b5060405161083c38038061083c83398101604081905261002f9161009a565b6001600160a01b0381166100895760405162461bcd60e51b815260206004820152601d60248201527f4f7261636c6520616464726573732063616e6e6f74206265207a65726f000000604482015260640160405180910390fd5b6001600160a01b03166080526100ca565b6000602082840312156100ac57600080fd5b81516001600160a01b03811681146100c357600080fd5b9392505050565b60805161073c6101006000396000818160560152818161010901528181610231015281816102c6015261034e015261073c6000f3fe608060405234801561001057600080fd5b506004361061004c5760003560e01c8063741bef1a146100515780638e15f47314610095578063a76752b8146100d0578063ec2b70a4146100e6575b600080fd5b6100787f000000000000000000000000000000000000000000000000000000000000000081565b6040516001600160a01b0390911681526020015b60405180910390f35b61009d6100fc565b6040805194855260ff909316602085015269ffffffffffffffffffff90911691830191909152606082015260800161008c565b6100d86102c0565b60405161008c929190610429565b6100ee6103d4565b60405190815260200161008c565b60008060008060008060007f00000000000000000000000000000000000000000000000000000000000000006001600160a01b031663feaf968c6040518163ffffffff1660e01b815260040160a060405180830381865afa158015610165573d6000803e3d6000fd5b505050506040513d601f19601f820116820180604052508101906101899190610483565b5093505092509250600081116101df5760405162461bcd60e51b81526020600482015260166024820152754f7261636c65206461746120696e636f6d706c65746560501b60448201526064015b60405180910390fd5b6000821361022f5760405162461bcd60e51b815260206004820152601d60248201527f4f7261636c652072657475726e656420696e76616c696420707269636500000060448201526064016101d6565b7f00000000000000000000000000000000000000000000000000000000000000006001600160a01b031663313ce5676040518163ffffffff1660e01b8152600401602060405180830381865afa15801561028d573d6000803e3d6000fd5b505050506040513d601f19601f820116820180604052508101906102b191906104d3565b91979196509194509092509050565b606060007f00000000000000000000000000000000000000000000000000000000000000006001600160a01b0316637284e4166040518163ffffffff1660e01b8152600401600060405180830381865afa158015610322573d6000803e3d6000fd5b505050506040513d6000823e601f3d908101601f1916820160405261034a9190810190610513565b91507f00000000000000000000000000000000000000000000000000000000000000006001600160a01b03166354fd4d506040518163ffffffff1660e01b8152600401602060405180830381865afa1580156103aa573d6000803e3d6000fd5b505050506040513d601f19601f820116820180604052508101906103ce91906105c0565b90509091565b60008060006103e16100fc565b50509150915080600a6103f491906106d5565b6103fe90836106e4565b9250505090565b60005b83811015610420578181015183820152602001610408565b50506000910152565b6040815260008351806040840152610448816060850160208801610405565b602083019390935250601f91909101601f191601606001919050565b805169ffffffffffffffffffff8116811461047e57600080fd5b919050565b600080600080600060a0868803121561049b57600080fd5b6104a486610464565b94506020860151935060408601519250606086015191506104c760808701610464565b90509295509295909350565b6000602082840312156104e557600080fd5b815160ff811681146104f657600080fd5b9392505050565b634e487b7160e01b600052604160045260246000fd5b60006020828403121561052557600080fd5b815167ffffffffffffffff8082111561053d57600080fd5b818401915084601f83011261055157600080fd5b815181811115610563576105636104fd565b604051601f8201601f19908116603f0116810190838211818310171561058b5761058b6104fd565b816040528281528760208487010111156105a457600080fd5b6105b5836020830160208801610405565b979650505050505050565b6000602082840312156105d257600080fd5b5051919050565b634e487b7160e01b600052601160045260246000fd5b600181815b8085111561062a578160001904821115610610576106106105d9565b8085161561061d57918102915b93841c93908002906105f4565b509250929050565b600082610641575060016106cf565b8161064e575060006106cf565b8160018114610664576002811461066e5761068a565b60019150506106cf565b60ff84111561067f5761067f6105d9565b50506001821b6106cf565b5060208310610133831016604e8410600b84101617156106ad575081810a6106cf565b6106b783836105ef565b80600019048211156106cb576106cb6105d9565b0290505b92915050565b60006104f660ff841683610632565b60008261070157634e487b7160e01b600052601260045260246000fd5b50049056fea26469706673582212205cfcec1bd8ec3348247c9fd4489b1e4e81b3bdc20b8b9bf09aeed7fa7bae706164736f6c63430008140033",
  "linkReferences": {},
  "deployedLinkReferences": {}
}